{
  "_format": "hh-sol-artifact-1",
  "contractName": "DocumentVerification",
  "sourceName": "contracts/DocumentVerification.sol",
  "abi": [
    {
      "inputs": [
        {
          "internalType": "string",
          "name": "",
          "type": "string"
        }
      ],
      "name": "certificates",
      "outputs": [
        {
          "internalType": "string",
          "name": "holderName",
          "type": "string"
        },
        {
          "internalType": "string",
          "name": "documentHash",
          "type": "string"
        },
        {
          "internalType": "uint256",
          "name": "issueDate",
          "type": "uint256"
        },
        {
          "internalType": "address",
          "name": "issuer",
          "type": "address"
        }
      ],
      "stateMutability": "view",
      "type": "function"
    },
    {
      "inputs": [
        {
          "internalType": "string",
          "name": "docHash",
          "type": "string"
        },
        {
          "internalType": "string",
          "name": "holderName",
          "type": "string"
        }
      ],
      "name": "issueCertificate",
      "outputs": [],
      "stateMutability": "nonpayable",
      "type": "function"
    },
    {
      "inputs": [
        {
          "internalType": "string",
          "name": "docHash",
          "type": "string"
        }
      ],
      "name": "verifyCertificate",
      "outputs": [
        {
          "internalType": "string",
          "name": "",
          "type": "string"
        },
        {
          "internalType": "uint256",
          "name": "",
          "type": "uint256"
        },
        {
          "internalType": "address",
          "name": "",
          "type": "address"
        }
      ],
      "stateMutability": "view",
      "type": "function"
    }
  ],
  "bytecode": "0x608060405234801561001057600080fd5b50610b26806100206000396000f3fe608060405234801561001057600080fd5b50600436106100415760003560e01c8063211bbe71146100465780638b23d875146100625780638f2b91ea14610094575b600080fd5b610060600480360381019061005b91906106ed565b6100c7565b005b61007c600480360381019061007791906106ac565b610211565b60405161008b939291906108cb565b60405180910390f35b6100ae60048036038101906100a991906106ac565b61042b565b6040516100be9493929190610878565b60405180910390f35b600080836040516100d89190610861565b9081526020016040518091039020600201541461012a576040517f08c379a000000000000000000000000000000000000000000000000000000000815260040161012190610929565b60405180910390fd5b60405180608001604052808281526020018381526020014281526020013373ffffffffffffffffffffffffffffffffffffffff168152506000836040516101719190610861565b9081526020016040518091039020600082015181600001908051906020019061019b9291906105a1565b5060208201518160010190805190602001906101b89291906105a1565b506040820151816002015560608201518160030160006101000a81548173ffffffffffffffffffffffffffffffffffffffff021916908373ffffffffffffffffffffffffffffffffffffffff1602179055509050505050565b6060600080600080856040516102279190610861565b908152602001604051809103902060405180608001604052908160008201805461025090610a4f565b80601f016020809104026020016040519081016040528092919081815260200182805461027c90610a4f565b80156102c95780601f1061029e576101008083540402835291602001916102c9565b820191906000526020600020905b8154815290600101906020018083116102ac57829003601f168201915b505050505081526020016001820180546102e290610a4f565b80601f016020809104026020016040519081016040528092919081815260200182805461030e90610a4f565b801561035b5780601f106103305761010080835404028352916020019161035b565b820191906000526020600020905b81548152906001019060200180831161033e57829003601f168201915b50505050508152602001600282015481526020016003820160009054906101000a900473ffffffffffffffffffffffffffffffffffffffff1673ffffffffffffffffffffffffffffffffffffffff1673ffffffffffffffffffffffffffffffffffffffff1681525050905060008160400151141561040e576040517f08c379a000000000000000000000000000000000000000000000000000000000815260040161040590610909565b60405180910390fd5b806000015181604001518260600151935093509350509193909250565b60008180516020810182018051848252602083016020850120818352809550505050505060009150905080600001805461046490610a4f565b80601f016020809104026020016040519081016040528092919081815260200182805461049090610a4f565b80156104dd5780601f106104b2576101008083540402835291602001916104dd565b820191906000526020600020905b8154815290600101906020018083116104c057829003601f168201915b5050505050908060010180546104f290610a4f565b80601f016020809104026020016040519081016040528092919081815260200182805461051e90610a4f565b801561056b5780601f106105405761010080835404028352916020019161056b565b820191906000526020600020905b81548152906001019060200180831161054e57829003601f168201915b5050505050908060020154908060030160009054906101000a900473ffffffffffffffffffffffffffffffffffffffff16905084565b8280546105ad90610a4f565b90600052602060002090601f0160209004810192826105cf5760008555610616565b82601f106105e857805160ff1916838001178555610616565b82800160010185558215610616579182015b828111156106155782518255916020019190600101906105fa565b5b5090506106239190610627565b5090565b5b80821115610640576000816000905550600101610628565b5090565b60006106576106528461097a565b610949565b90508281526020810184848401111561066f57600080fd5b61067a848285610a0d565b509392505050565b600082601f83011261069357600080fd5b81356106a3848260208601610644565b91505092915050565b6000602082840312156106be57600080fd5b600082013567ffffffffffffffff8111156106d857600080fd5b6106e484828501610682565b91505092915050565b6000806040838503121561070057600080fd5b600083013567ffffffffffffffff81111561071a57600080fd5b61072685828601610682565b925050602083013567ffffffffffffffff81111561074357600080fd5b61074f85828601610682565b9150509250929050565b610762816109d1565b82525050565b6000610773826109aa565b61077d81856109b5565b935061078d818560208601610a1c565b61079681610adf565b840191505092915050565b60006107ac826109aa565b6107b681856109c6565b93506107c6818560208601610a1c565b80840191505092915050565b60006107df6015836109b5565b91507f4365727469666963617465206e6f7420666f756e6400000000000000000000006000830152602082019050919050565b600061081f601a836109b5565b91507f436572746966696361746520616c7265616479206578697374730000000000006000830152602082019050919050565b61085b81610a03565b82525050565b600061086d82846107a1565b915081905092915050565b600060808201905081810360008301526108928187610768565b905081810360208301526108a68186610768565b90506108b56040830185610852565b6108c26060830184610759565b95945050505050565b600060608201905081810360008301526108e58186610768565b90506108f46020830185610852565b6109016040830184610759565b949350505050565b60006020820190508181036000830152610922816107d2565b9050919050565b6000602082019050818103600083015261094281610812565b9050919050565b6000604051905081810181811067ffffffffffffffff821117156109705761096f610ab0565b5b8060405250919050565b600067ffffffffffffffff82111561099557610994610ab0565b5b601f19601f8301169050602081019050919050565b600081519050919050565b600082825260208201905092915050565b600081905092915050565b60006109dc826109e3565b9050919050565b600073ffffffffffffffffffffffffffffffffffffffff82169050919050565b6000819050919050565b82818337600083830152505050565b60005b83811015610a3a578082015181840152602081019050610a1f565b83811115610a49576000848401525b50505050565b60006002820490506001821680610a6757607f821691505b60208210811415610a7b57610a7a610a81565b5b50919050565b7f4e487b7100000000000000000000000000000000000000000000000000000000600052602260045260246000fd5b7f4e487b7100000000000000000000000000000000000000000000000000000000600052604160045260246000fd5b6000601f19601f830116905091905056fea26469706673582212207f5309113d740fee6f5a9dd0af97187c32dba8f3d78126ee041b16da1b5111d464736f6c63430008000033",
  "linkReferences": {},
  "deployedLinkReferences": {}
}